:100000000C9443000C9460000C9460000C9460000D
:100010000C948C0A0C9460000C9460000C946000AA
:100020000C9460000C9460000C9460000C946000D0
:100030000C9460000C9460000C9460000C946000C0
:100040000C9462000C9460000C941D030C946000EE
:100050000C9454030C9460000C9460000C946000A9
:100060000C9460000C94600005A84CCDB2D44EB93D
:100070003836A9020C50B9918688083CA6AAAA2A4B
:10008000BE000000803F11241FBECFEFD8E0DEBFCE
:10009000CDBF11E0A0E0B1E0EAEDF2E202C00590D0
:1000A0000D92A238B107D9F715E0A2E8B1E001C07E
:1000B0001D92AB3CB107E1F70E9433010C946B1128
:1000C0000C9400001F920F920FB60F9211248F9381
:1000D0008091C2058F5F8093C205809185018F5FFB
:1000E000809385018F3129F481E080938201109201
:1000F00085018F910F900FBE0F901F9018952F9232
:100100003F924F925F926F927F928F929F92AF92A7
:10011000BF92CF92DF92EF92FF920F931F93DF93E4
:10012000CF9300D000D0CDB7DEB729013A01170137
:10013000A982BA82CB82DC82461A570A680A790AF7
:10014000AA2497FCA094BA2CC501B401A301920182
:100150000E94210E613020E872072FEF82072FEFF7
:1001600092072CF460E070E88FEF9FEF0CC06F3FB8
:100170003FE7730730E0830730E0930724F06FEF29
:100180007FE780E090E0F801A080B180C280D3805A
:10019000A60EB71EC81ED91EA082B182C282D3820B
:1001A000F10180819181A281B381A3019201281B79
:1001B000390B4A0B5B0BCA01B90128EE33E040E072
:1001C00050E00E94210E298D3A8D4B8D5C8D0E944E
:1001D000210E7B018C0169817A818B819C81A30135
:1001E00092010E94210EE60EF71E081F191FAE0C89
:1001F000BF1CC01ED11EF1014082518262827382F7
:10020000C601B50120E030E840E050E00E94620EF7
:10021000CA01B9010F900F900F900F90CF91DF910D
:100220001F910F91FF90EF90DF90CF90BF90AF9014
:100230009F908F907F906F905F904F903F902F9006
:100240000895CF93DF93C1E0D0E0CE010E947E10ED
:10025000FE01ED55FD4F80832196C730D105A9F7EA
:10026000DF91CF9108952F923F924F925F926F92BC
:100270007F928F929F92AF92BF92CF92DF92EF9236
:10028000FF920F931F93DF93CF93CDB7DEB7A8975D
:100290000FB6F894DEBF0FBECDBF19821A821B8243
:1002A0001C821D821E821F82188619861A861B8652
:1002B0001C861D861E861F86188A209A519A2898A9
:1002C00060E072EC81E090E00E9497031092C5001C
:1002D00080E18093C40080E091E00E94BC030E9412
:1002E000C009789487E091E00E94BC0380E197E226
:1002F00028EC30E0F9013197F1F70197D9F70E9426
:10030000CD030E9421010E9402050E94F804882367
:1003100029F48DE091E00E94BC03FFCF88EE93E0CA
:1003200028EC30E0F9013197F1F70197D9F78DE129
:1003300091E00E94BC030E94350A8EE291E00E9487
:10034000BC030E9420080E94BD080E94A60A81E406
:1003500091E00E94BC03289A3A9AF0E12F2EF7E22E
:100360003F2E412C512C6624809182018823E1F399
:10037000429A0E94140A0E941107CE0141960E94DF
:10038000AD0600D000D069897A898B899C8925E0E7
:1003900030E040E050E0ADB7BEB711962D933D93ED
:1003A0004D935C93149720E030E040E050E08E01E4
:1003B000075F1F4FEDE0EE2EF12CEC0EFD1EB8E7AF
:1003C000AB2EB5E0BB2EC12CD12CAAE08A2E912CED
:1003D0000E947F00762E6D897E898F89988D25E019
:1003E00030E040E050E0ADB7BEB711962D933D939D
:1003F0004D935C931497A20191018E010F5F1F4FE3
:10040000F5E0EF2EF12CEC0EFD1EECE4AE2EE4E058
:10041000BE2EC12CD12C0E947F000F900F900F9008
:100420000F90872D0E94E70942986394B5E06B1600
:1004300009F44DC0B61590F0E2E06E1611F1E61524
:1004400028F0F1E06F1609F0DFC018C023E0621653
:10045000D9F034E0631609F0D7C078C047E06416DD
:1004600009F47EC0641608F471C058E0651609F4FA
:100470009DC089E0681609F0C7C0A3C00E94B808F3
:10048000C7C00E946F06C4C080918301882309F40D
:10049000BFC0ADB7BEB718970FB6F894BEBF0FBEBA
:1004A000ADBF0DB71EB70F5F1F4FE9E1F0E0EC0FD6
:1004B000FD1F1296FC93EE931197E9E4F1E0D80149
:1004C0001396FC93EE931297C201B10127C080915D
:1004D0008301882309F49CC02DB73EB728503040D3
:1004E0000FB6F8943EBF0FBE2DBF0DB71EB70F5FFE
:1004F0001F4FE9E1F0E0EC0FFD1FADB7BEB712965C
:10050000FC93EE931197EDE4F1E0D8011396FC9380
:10051000EE93129769897A898B899C8928EE33E05A
:1005200040E050E00E94620ED80114962D933D9356
:100530004D935C9317970E947D0EEDB7FEB73896EA
:100540000FB6F894FEBF0FBEEDBF62C0809183016D
:10055000882309F45DC0CE0149960E94BC0358C0AF
:1005600080918301882309F453C000D000D000D0CB
:10057000EDB7FEB7319629E130E02C0F3D1FADB746
:10058000BEB712963C932E93119742E551E05383E8
:100590004283158214820E947D0E8DB79EB7069607
:1005A0000FB6F8949EBF0FBE8DBF32C080918301FD
:1005B000882321F0CE0149960E94BC030E94B80A0C
:1005C00027C060918C0170918D01882777FD8095FF
:1005D000982F685E73408040904020EC34ED40E0FE
:1005E00050E00E94210E28EE33E040E050E00E94EF
:1005F000620E19012A0120ED3AE84FEF5FEF220E5B
:10060000331E441E551E04C03AE0631609F46624E6
:1006100010928201A9CECF93DF93C1E0D0E0FE011A
:10062000ED55FD4FCE0160810E9486102196C730A6
:10063000D105A9F7DF91CF9108951F920F920FB6C0
:100640000F9211242F933F934F935F936F937F9358
:100650008F939F93AF93BF93EF93FF938091C600C7
:10066000813439F4F8940E9413090E940B037894A2
:100670000AC0809184018F5F80938401833019F4D4
:1006800081E080938301FF91EF91BF91AF919F91A2
:100690008F917F916F915F914F913F912F910F902B
:1006A0000FBE0F901F9018951F920F920FB60F92CA
:1006B00011248F939F93EF93FF93909187018091E3
:1006C0008601891779F08091C00085FFFCCFE92F62
:1006D000F0E0EE56FE4F80818093C60010829F5F4F
:1006E00090938701FF91EF919F918F910F900FBE93
:1006F0000F901F901895AC0130E012C08091C0009F
:1007000085FF03C02093C6000AC080918601E82FB0
:10071000F0E0EE56FE4F20838F5F809386013F5FAF
:10072000FA01E30FF11D2081222341F708959B0177
:10073000AC0182E08093C00088E98093C100809181
:10074000C1008093C10086E88093C20060E472E437
:100750008FE090E00E94400E215030402093C40072
:100760003093C5008FEF8150E82FF0E0EE56FE4F3A
:1007700010828823C1F70895AC0120E007C0809162
:10078000C00085FFFCCFE093C6002F5FFA01E20FA7
:10079000F11DE081EE2399F7089558985998109229
:1007A000B90082E08093B80084E08093BC00089593
:1007B00084E98093BC0008952FEF30E00FC02150F2
:1007C000304061F41092BC008091880190918901C1
:1007D0000196909389018093880108958091BC00CF
:1007E00087FFEDCF08951F93182F882311F484E815
:1007F00001C084EC8093BC000E94DC039091BB009C
:10080000112319F484E98093BC00892F1F91089566
:100810008093BB0084E88093BC000E94DC030895B1
:10082000FF920F931F93F82E0CEB10E084EAF8016F
:1008300080830E94DC03F092BB0084E8F80180838F
:100840000E94DC031F910F91FF9008950F931F9357
:10085000162F042F880F0E941004812F0E94080475
:10086000802F0E94080484E98093BC001F910F919F
:1008700008950F931F93182F062F880F0E941004BE
:10088000802F0E940804110F812F81600E941004A4
:1008900080E00E94F3031F910F91089580918801D9
:1008A000089510928901109288010895CF92DF92E5
:1008B000EF92FF921F93DF93CF9300D000D000D030
:1008C000CDB7DEB76C0180ED0E94100483E40E9476
:1008D000080481ED0E9410047E010894E11CF11CC3
:1008E00016E01150812F0E94F303F70181937F01DD
:1008F0001123B9F7998180E02A8130E0822B932B74
:10090000F601918380839B8180E02C8130E0822BF3
:10091000932B909581959F4F938382839D8180E057
:100920002E8130E0822B932B909581959F4F95835C
:10093000848326960FB6F894DEBF0FBECDBFCF914D
:10094000DF911F91FF90EF90DF90CF900895CF92AD
:10095000DF92EF92FF921F93DF93CF9300D000D0EE
:1009600000D0CDB7DEB76C0180ED0E9410048BE3A0
:100970000E94080481ED0E9410047E010894E11C8D
:10098000F11C16E01150812F0E94F303F7018193AF
:100990007F011123B9F7998180E02A8130E0822B11
:1009A000932BF601918380839B8180E02C8130E042
:1009B000822B932B909581959F4F938382839D816A
:1009C00080E02E8130E0822B932B909581959F4F74
:1009D0009583848326960FB6F894DEBF0FBECDBFF5
:1009E000CF91DF911F91FF90EF90DF90CF9008950E
:1009F00088E665E70E94390490E0883609F491E0C2
:100A0000892F0895DF93CF9300D0CDB7DEB788E666
:100A10006BE640E80E94260480E89EE39A8389837F
:100A200089819A8101979A83898389819A81892B07
:100A3000B9F788E66BE643E00E94260488E66BE19E
:100A400048E00E94260488E66CE140E00E9426040B
:100A500088E66AE140E00E94260410928901109223
:100A600088010F900F90CF91DF9108955F926F9260
:100A70007F928F929F92AF92BF92CF92DF92EF922E
:100A8000FF920F931F93DF93CF930F92CDB7DEB7F3
:100A90007B018C0159016A0155249F775F770E9481
:100AA000EE0C181614F455245394C801B70120E035
:100AB00030E040E050E00E94EE0C87FF02C0198257
:100AC0000DC01982C601B50120E030E040E050E0E1
:100AD0000E949F0B181614F081E08983C801B701AA
:100AE00020E030E040E050E00E949F0B1816C4F078
:100AF000C601B50120E030E040E050E00E949F0BCD
:100B0000181614F0E2E0E983C601B50120E030E0F8
:100B100040E050E00E94EE0C882314F0F3E0F983EB
:100B2000552029F0C601B501A801970104C0C801EC
:100B3000B701A60195010E94A30B5B016C017B012B
:100B40008C01E89417F92BED3FE049E45FE30E9444
:100B5000F20C3B014C01C801B70120E030E040E855
:100B60005FE30E943A0B9B01AC01C601B5010E94F4
:100B7000F20C5B016C01C801B7012BE438EC47E8CB
:100B80005DE30E94F20C23EA32E94AE75EE30E9449
:100B90003B0B9B01AC01C601B5010E94F20C9B010D
:100BA000AC01C401B3010E943A0B9B01AC0155207A
:100BB000A1F08981813039F0813028F0823041F014
:100BC000833001F505C06BED7FE089EC9FE316C033
:100BD0006BED7FE089EC9FEB11C0E981E13019F00A
:100BE000E23081F407C02BED3FE049E450E40E947D
:100BF0003B0B06C02BED3FE049E450E40E943A0B6A
:100C00009B01AC01CA01B90127EC3FEC4FE557E469
:100C10000E94F20C0E940B0C9B01AC01CA010F90C8
:100C2000CF91DF911F910F91FF90EF90DF90CF90C8
:100C3000BF90AF909F908F907F906F905F9008953E
:100C40006F927F928F929F92AF92BF92CF92DF92DC
:100C5000EF92FF920F931F935B016C01DC01CB01BC
:100C6000B595A795979587952FEDE22E29E5F22E5C
:100C700027E3022F2FE5122FE81AF90A0A0B1B0BA4
:100C8000C801B70120E030E040E05FE30E94F20CD1
:100C90003B014C01C601B501A80197010E94F20C6D
:100CA000A80197010E94F20C9B01AC0160E070E08A
:100CB00080E490E40E943A0B9B01AC01C401B301B3
:100CC0000E94F20C1F910F91FF90EF90DF90CF9058
:100CD000BF90AF909F908F907F906F900895CF922C
:100CE000DF92EF92FF920F931F93CF93DF9348E928
:100CF000C42E42E0D42ECAEAD2E0E880F9800A810C
:100D00001B81F601619171916F01882777FD8095B4
:100D1000982F0E943E0CA80197010E943A0B26EAE8
:100D20003BE944E45BE30E94F20C9B01AC01C80187
:100D3000B7010E943B0B6993799389939993FEE9DC
:100D4000CF16F2E0DF06C9F6DF91CF911F910F9128
:100D5000FF90EF90DF90CF9008954F925F926F9247
:100D60007F928F929F92AF92BF92CF92DF92EF923B
:100D7000FF920F931F932C016090B2027090B30208
:100D80008090B4029090B502E090AA02F090AB027D
:100D90000091AC021091AD02C401B301A401930112
:100DA0000E94F20C5B016C01C801B701A801970118
:100DB0000E94F20C9B01AC01C601B5010E943B0BE5
:100DC0000E945F0D9B01AC016091AE027091AF0279
:100DD0008091B0029091B1020E943605F2016083C9
:100DE00071838283938317FB109517F91095C801BF
:100DF000B701A40193010E943605F2016483758353
:100E0000868397831F910F91FF90EF90DF90CF9093
:100E1000BF90AF909F908F907F906F905F904F901A
:100E200008952F923F924F925F926F927F928F928E
:100E30009F92AF92BF92CF92DF92EF92FF920F9369
:100E40001F93DF93CF93CDB7DEB72C970FB6F894EF
:100E5000DEBF0FBECDBF82E992E00E9456046091D2
:100E60009202709193022091B6023091B702621BF8
:100E7000730B882777FD8095982F0E943E0C23E501
:100E80003EE04FE854E30E94F20C69837A838B833F
:100E90009C8360919402709195022091B8023091E8
:100EA000B902621B730B882777FD8095982F0E94EB
:100EB0003E0C23E53EE04FE854E30E94F20C6D83C4
:100EC0007E838F839887609196027091970220911C
:100ED000BA023091BB02621B730B882777FD8095A5
:100EE000982F0E943E0C23E53EE04FE854E30E9419
:100EF000F20C69877A878B879C876090AA02709032
:100F0000AB028090AC029090AD022090AE02309087
:100F1000AF024090B0025090B102A090B202B090E7
:100F2000B302C090B402D090B5026D817E818F81F2
:100F30009885A40193010E94F20C7B018C016981C8
:100F40007A818B819C81A20191010E94F20C9B010C
:100F5000AC01C801B7010E943A0B9B01AC01C6016C
:100F6000B5010E943B0B6093B2027093B302809371
:100F7000B4029093B5026D817E818F819885A60120
:100F800095010E94F20C7B018C0169857A858B8525
:100F90009C85A20191010E94F20C9B01AC01C80149
:100FA000B7010E943A0B9B01AC01C401B3010E943E
:100FB0003A0B6093AA027093AB028093AC029093B9
:100FC000AD0269817A818B819C81A60195010E9485
:100FD000F20C7B018C0169857A858B859C85A40147
:100FE00093010E94F20C9B01AC01C801B7010E9461
:100FF0003A0B9B01AC01C201B1010E943B0B609313
:10100000AE027093AF028093B0029093B1022C961F
:101010000FB6F894DEBF0FBECDBFCF91DF911F9109
:101020000F91FF90EF90DF90CF90BF90AF909F9087
:101030008F907F906F905F904F903F902F9008958A
:10104000CF92DF92EF92FF921F93DF93CF93CDB7B2
:10105000DEB762970FB6F894DEBF0FBECDBFDE01DC
:101060001796E6E7F1E08CE001900D928150E1F7F0
:1010700018EC6E010894C11CD11C50EDE52E57E010
:10108000F52E3CC0C6010E94560429813A814427AE
:1010900037FD4095542F8F819885A985BA85820F99
:1010A000931FA41FB51F8F839887A987BA872B81A9
:1010B0003C81442737FD4095542F8B859C85AD8519
:1010C000BE85820F931FA41FB51F8B879C87AD879A
:1010D000BE872D813E81442737FD4095542F8F8553
:1010E0009889A989BA89820F931FA41FB51F8F877A
:1010F000988BA98BBA8BC7010197F1F7115010F6A5
:101100006F81788589859A8528EC30E040E050E051
:101110000E94620E3093B7022093B6026B857C85E5
:101120008D859E8528EC30E040E050E00E94620E04
:101130003093B9022093B8026F85788989899A899A
:1011400028EC30E040E050E00E94620E3093BB0299
:101150002093BA0262960FB6F894DEBF0FBECDBFE1
:10116000CF91DF911F91FF90EF90DF90CF90089586
:1011700088E992E00E94A7040895DF93CF9300D0FE
:1011800000D000D0CDB7DEB7CE0101960E94A704F3
:1011900069817A812091A4023091A502621B730BB0
:1011A000882777FD8095982F0E943E0C6093AA02B5
:1011B0007093AB028093AC029093AD026B817C8103
:1011C0002091A6023091A702621B730B882777FD3E
:1011D0008095982F0E943E0C6093AE027093AF02F0
:1011E0008093B0029093B1026D817E812091A8021C
:1011F0003091A902621B730B882777FD8095982F89
:101200000E943E0C6093B2027093B3028093B402CA
:101210009093B50226960FB6F894DEBF0FBECDBFF1
:10122000CF91DF910895CF92DF92EF92FF921F93BB
:10123000DF93CF93CDB7DEB768970FB6F894DEBFD4
:101240000FBECDBFDE011D96EAE6F1E08CE0019015
:101250000D928150E1F7DE011796E4E6F1E086E0B9
:1012600001900D928150E1F718EC6E010894C11CB9
:10127000D11C60EDE62E67E0F62E3CC0C6010E9450
:10128000A70429813A81442737FD4095542F8D8545
:101290009E85AF85B889820F931FA41FB51F8D87C8
:1012A0009E87AF87B88B2B813C81442737FD4095C3
:1012B000542F89899A89AB89BC89820F931FA41FF7
:1012C000B51F898B9A8BAB8BBC8B2D813E814427BC
:1012D00037FD4095542F8D899E89AF89B88D820F37
:1012E000931FA41FB51F8D8B9E8BAF8BB88FC7012B
:1012F0000197F1F7115010F66D857E858F859889DD
:1013000028EC30E040E050E00E94620E8F8198852A
:10131000281B390B3093A5022093A40269897A898E
:101320008B899C8928EC30E040E050E00E94620EFE
:1013300089859A85281B390B3093A7022093A60232
:101340006D897E898F89988D28EC30E040E050E0EF
:101350000E94620E8B859C85281B390B3093A90255
:101360002093A80268960FB6F894DEBF0FBECDBFDB
:10137000CF91DF911F91FF90EF90DF90CF90089574
:1013800091EA94BD81E085BD9093800080938100B7
:101390009093B0008093B10080936E0010926F0024
:1013A000109270001092B3001092B4001092890055
:1013B0001092880010928B0010928A0017BC18BC03
:1013C00084B18E6084B98AB188668AB90895A2EC26
:1013D000B4E0FD01E80FF11D90819093BF04982FB8
:1013E0009B5AFD01E90FF11D90819093C004865531
:1013F000A80FB11D8C918093C104ACEBB2E0FD014C
:10140000E60FF11D80818093BC04862F8B5AFD016D
:10141000E80FF11D80818093BD046655A60FB11DB4
:101420008C918093BE0408958091BC048093B40095
:101430008091BD0488BD8091BE0487BD8091BF04AA
:101440008093B3008091C004992787FD9095909375
:101450008900809388008091C104992787FD909529
:1014600090938B0080938A000895EF92FF920F93E0
:101470001F93CF93DF93C0E0D0E056E9E52EF12C27
:1014800004E610E0BE0180E090E00E943C0C9B016D
:10149000AC010E943B0B20E030E040E85BE30E949F
:1014A000F20C2BED3FE049E450E40E94F20C0E9464
:1014B000550D20E030E04EEF52E40E94F20C0E9405
:1014C0000B0C61587F4FFE01EE53FB4F6E9D900158
:1014D0006F9D300D7E9D300D1124232F330F330B64
:1014E0002083FE01E454FD4F609FC001619F900D79
:1014F000709F900D1124892F990F990B808321964D
:1015000081E0C030D80709F0BDCFDF91CF911F91A6
:101510000F91FF90EF9008951F920F920FB60F92C8
:1015200011248F938091C205309B03C08093C8051E
:1015300007C08093C40580916C008E7F80936C00FF
:101540008F910F900FBE0F901F901895E8E6F0E076
:10155000808182608083ECE6F0E080818960808316
:1015600082E08BBB87B187B988B1896088B908955B
:10157000BF92CF92DF92EF92FF920F931F93B090A2
:10158000C3058091C705B81A8B2D8A518C3270F52E
:1015900000918A0110918B01B801882777FD809511
:1015A000982F0E943E0C6B017C016B2D70E095E042
:1015B000660F771F9A95E1F7601B710B882777FDFF
:1015C0008095982F0E943E0C2DEC3CEC4CE45FE3A0
:1015D0000E94F20C9B01AC01C701B6010E943B0BBB
:1015E0000E940B0C70938B0160938A01B090C4052C
:1015F0008091C805B81A8B2D8A518C3270F50091F4
:101600008C0110918D01B801882777FD8095982F66
:101610000E943E0C6B017C016B2D70E085E0660F33
:10162000771F8A95E1F7601B710B882777FD8095FE
:10163000982F0E943E0C2DEC3CEC4CE45FE30E94A2
:10164000F20C9B01AC01C701B6010E943B0B0E944A
:101650000B0C70938D0160938C0180916C008960FC
:1016600080936C001F910F91FF90EF90DF90CF90CF
:10167000BF9008955058BB27AA270ED075C166D1D8
:1016800030F06BD120F031F49F3F11F41EF45BC1B8
:101690000EF4E095E7FB51C1E92F77D180F3BA173B
:1016A000620773078407950718F071F49EF58FC1E0
:1016B0000EF4E0950B2EBA2FA02D0B01B90190016D
:1016C0000C01CA01A0011124FF27591B99F0593FB1
:1016D00050F4503E68F11A16F040A22F232F342FF9
:1016E0004427585FF3CF469537952795A795F04047
:1016F0005395C9F77EF41F16BA0B620B730B840B5C
:10170000BAF09150A1F0FF0FBB1F661F771F881F13
:10171000C2F70EC0BA0F621F731F841F48F487956B
:1017200077956795B795F7959E3F08F0B3CF93955A
:10173000880F08F09927EE0F979587950895D9D0CF
:1017400008F481E008950CD00FC107D140F0FED01D
:1017500030F021F45F3F19F0F0C0511139C1F3C0EE
:1017600014D198F39923C9F35523B1F3951B550B65
:10177000BB27AA2762177307840738F09F5F5F4F64
:10178000220F331F441FAA1FA9F333D00E2E3AF0A5
:10179000E0E830D091505040E695001CCAF729D0BF
:1017A000FE2F27D0660F771F881FBB1F261737070E
:1017B0004807AB07B0E809F0BB0B802DBF01FF273E
:1017C00093585F4F2AF09E3F510568F0B6C000C1A4
:1017D0005F3FECF3983EDCF3869577956795B79578
:1017E000F7959F5FC9F7880F911D9695879597F993
:1017F0000895E1E0660F771F881FBB1F621773070C
:101800008407BA0720F0621B730B840BBA0BEE1F20
:1018100088F7E095089504D06894B111D9C008956F
:10182000BCD088F09F5790F0B92F9927B751A0F0FE
:10183000D1F0660F771F881F991F1AF0BA95C9F764
:1018400012C0B13081F0C3D0B1E00895C0C0672F9D
:10185000782F8827B85F39F0B93FCCF38695779514
:101860006795B395D9F73EF49095809570956195FD
:101870007F4F8F4F9F4F0895E89409C097FB3EF428
:1018800090958095709561957F4F8F4F9F4F9923CD
:10189000A9F0F92F96E9BB279395F695879577954B
:1018A0006795B795F111F8CFFAF4BB0F11F460FF0B
:1018B0001BC06F5F7F4F8F4F9F4F16C0882311F063
:1018C00096E911C0772321F09EE8872F762F05C077
:1018D000662371F096E8862F70E060E02AF09A9512
:1018E000660F771F881FDAF7880F9695879597F907
:1018F0000895990F0008550FAA0BE0E8FEEF1616A1
:101900001706E807F907C0F012161306E407F507F3
:1019100098F0621B730B840B950B39F40A2661F067
:10192000232B242B252B21F408950A2609F4A1400A
:10193000A6958FEF811D811D089597F99F6780E817
:1019400070E060E008959FEF80EC089500240A9411
:101950001616170618060906089500240A9412168A
:101960001306140605060895092E0394000C11F4BD
:10197000882352F0BB0F40F4BF2B11F460FF04C06A
:101980006F5F7F4F8F4F9F4F089557FD9058440FC3
:10199000551F59F05F3F71F04795880F97FB991FCE
:1019A00061F09F3F79F0879508951216130614068B
:1019B000551FF2CF4695F1DF08C016161706180618
:1019C000991FF1CF86957105610508940895E894F3
:1019D000BB2766277727CB0197F908958ADF08F49C
:1019E0008FEF08950BD0C0CFB1DF28F0B6DF18F02D
:1019F000952309F0A2CFA7CF1124EACFC6DFA0F329
:101A0000959FD1F3950F50E0551F629FF001729F93
:101A1000BB27F00DB11D639FAA27F00DB11DAA1FB2
:101A2000649F6627B00DA11D661F829F2227B00DFF
:101A3000A11D621F739FB00DA11D621F839FA00D8A
:101A4000611D221F749F3327A00D611D231F849FDA
:101A5000600D211D822F762F6A2F11249F57504031
:101A60008AF0E1F088234AF0EE0FFF1FBB1F661FCC
:101A7000771F881F91505040A9F79E3F510570F085
:101A80005CCFA6CF5F3FECF3983EDCF3869577956D
:101A90006795B795F795E7959F5FC1F7FE2B880F80
:101AA000911D9695879597F908959F935CD00F9017
:101AB00007FCEE5F7FC011F40EF445CF3EC06DDF32
:101AC000D0F39923D9F3CEF39F57550B87FF43D01B
:101AD0000024A0E640EA900180585695979528F496
:101AE000805C660F771F881F20F02617370748078E
:101AF00030F4621B730B840B202931294A2BA695E5
:101B000017940794202531254A2758F7660F771F29
:101B1000881F20F026173707480730F4620B730B35
:101B2000840B200D311D411DA09581F7B901842F33
:101B30009158880F9695879508959F3F31F0915061
:101B400020F4879577956795B795880F911D9695A1
:101B5000879597F9089591505040660F771F881F19
:101B6000D2F70895F0CE19DFE8F3E894E0E0BB2760
:101B70009F57F0F02AED3FE049EC06C0EE0FBB0F97
:101B8000661F771F881F28F0B23A62077307840721
:101B900028F0B25A620B730B840BE3959A9572F797
:101BA000803830F49A95BB0F661F771F881FD2F7D5
:101BB0009048C5CFEF93E0FF06C0A2EA2AED3FE0D0
:101BC00049EC5FEB69DDD0DE0F90039401FC905887
:101BD000E8E6F0E000C09F938F937F936F93FF93AD
:101BE000EF939B01AC01FEDEEF91FF9105D02F91A9
:101BF0003F914F915F91F6CEDF93CF931F930F9359
:101C0000FF92EF92DF927B018C01689405C0DA2E7F
:101C1000EF01F4DEFE01E894A591259135914591FF
:101C20005591AEF3EF0138DDFE019701A801DA947A
:101C300079F7DF90EF90FF900F911F91CF91DF9197
:101C40000895629FD001739FF001829FE00DF11D06
:101C5000649FE00DF11D929FF00D839FF00D749F26
:101C6000F00D659FF00D9927729FB00DE11DF91FD2
:101C7000639FB00DE11DF91FBD01CF01112408952F
:101C8000A1E21A2EAA1BBB1BFD010DC0AA1FBB1F80
:101C9000EE1FFF1FA217B307E407F50720F0A21BF2
:101CA000B30BE40BF50B661F771F881F991F1A945F
:101CB00069F760957095809590959B01AC01BD0189
:101CC000CF01089597FB092E05260ED057FD04D0AD
:101CD000D7DF0AD0001C38F45095409530952195F7
:101CE0003F4F4F4F5F4F0895F6F790958095709551
:101CF00061957F4F8F4F9F4F0895AEE0B0E0E3E8CE
:101D0000FEE00C9442110D891E8986E08C831A83B3
:101D100009838FEF9FE79E838D839E01275E3F4F50
:101D2000CE0101966F89788DA9010E94A10E2F81A5
:101D30003885020F131FF80110822E96E4E00C94F0
:101D40005E11ABE0B0E0E7EAFEE00C9434113C0138
:101D50002B015A01FC0117821682838181FD03C089
:101D60006FEF7FEFC6C19AE0892E1E010894211CF7
:101D7000311CF3012381F20123FD859123FF819121
:101D80002F01882309F4B2C1853239F423FD8591EE
:101D900023FF81912F01853229F490E0B3010E9445
:101DA000AA10E7CF982FFF24EE249924FFE1FF1516
:101DB000D0F09B3269F09C3228F4903259F0933283
:101DC00091F40EC09D3249F0903369F441E024C093
:101DD00052E0F52A84E0F82A28C098E0F92A25C0C4
:101DE000E0E1FE2A22C0F7FC29C0892F80538A3007
:101DF00070F4F6FE05C0989C902C1124980E15C026
:101E0000E89CE02C1124E80EF0E2FF2A0EC09E327E
:101E100029F4F6FC6BC140E4F42A07C09C3619F49F
:101E200050E8F52A02C0983649F4F20123FD959155
:101E300023FF91912F01992309F0B8CF892F855461
:101E4000833018F08052833038F444E050E0A40E20
:101E5000B51E5FE359830FC0933631F0933779F0A5
:101E6000933509F056C020C0F5018081898342E096
:101E700050E0A40EB51E610101E010E012C0F501B2
:101E8000C080D180F6FC03C06FEF7FEF02C0692DE8
:101E900070E042E050E0A40EB51EC6010E949F1003
:101EA0008C015FE7F52214C0F501C080D180F6FCFB
:101EB00003C06FEF7FEF02C0692D70E042E050E099
:101EC000A40EB51EC6010E9494108C0150E8F52A9C
:101ED000F3FE07C01AC080E290E0B3010E94AA108E
:101EE000EA948E2D90E008171907A8F30EC0F601AA
:101EF000F7FC8591F7FE81916F0190E0B3010E949C
:101F0000AA10E110EA94015010400115110579F76B
:101F1000EAC0943611F0993669F5F7FE08C0F5016C
:101F2000208131814281538184E090E00AC0F50133
:101F3000808191819C01442737FD4095542F82E098
:101F400090E0A80EB91E9FE6F92257FF09C05095F0
:101F50004095309521953F4F4F4F5F4FE0E8FE2A67
:101F6000CA01B901A1012AE030E00E94D610D82EA2
:101F7000D21840C0953729F41F2D1F7E2AE030E08B
:101F80001DC01F2D197F9F3661F0903720F49835C2
:101F900009F0ACC00FC0903739F0983709F0A6C0EF
:101FA00004C028E030E00AC0106114FD146020E194
:101FB00030E004C014FD166020E132E017FF08C0D5
:101FC000F501608171818281938144E050E008C015
:101FD000F50180819181BC0180E090E042E050E019
:101FE000A40EB51EA1010E94D610D82ED2188FE7DC
:101FF000F82EF122F6FE0BC05EEFF522D91438F46C
:10200000F4FE07C0F2FC05C08FEEF82202C01D2DC1
:1020100001C0192DF4FE0DC0FE01ED0DF11D8081F2
:10202000803319F499EEF92208C01F5FF2FE05C053
:1020300003C08F2D867809F01F5F0F2DF3FC14C0AD
:10204000F0FE0FC01E1510F09D2C0BC09D2C9E0C99
:10205000911A1E2D06C080E290E0B3010E94AA10E2
:102060001F5F1E15C0F304C01E1510F4E11A01C055
:10207000EE2404FF0FC080E390E0B3010E94AA1099
:1020800002FF1DC001FD03C088E790E00EC088E597
:1020900090E00BC0802F867891F001FF02C08BE2A8
:1020A00001C080E2F7FC8DE290E0B3010E94AA102B
:1020B00006C080E390E0B3010E94AA109A94D9145C
:1020C000C0F3DA94F101ED0DF11D808190E0B301D0
:1020D0000E94AA10DD20A9F706C080E290E0B301BB
:1020E0000E94AA10EA94EE20C1F743CEF301668164
:1020F0007781CB012B96E2E10C945011F999FECF38
:1021000092BD81BDF89A992780B50895262FF99937
:10211000FECF1FBA92BD81BD20BD0FB6F894FA9ACA
:10212000F99A0FBE01960895FC0105906150704028
:102130000110D8F7809590958E0F9F1F0895FC0190
:102140006150704001900110D8F7809590958E0FE6
:102150009F1F08950F931F93CF93DF938C01EB0183
:102160008B8181FF1BC082FF0DC02E813F818C813E
:102170009D812817390764F4E881F9810193F98377
:10218000E88306C0E885F985802F0995892B31F40D
:102190008E819F8101969F838E8302C00FEF1FEF78
:1021A000C801DF91CF911F910F910895FA01AA27DD
:1021B000283051F1203181F1E8946F936E7F6E5F8A
:1021C0007F4F8F4F9F4FAF4FB1E03ED0B4E03CD038
:1021D000670F781F891F9A1FA11D680F791F8A1F1B
:1021E000911DA11D6A0F711D811D911DA11D20D082
:1021F00009F468943F912AE0269F11243019305D3C
:102200003193DEF6CF010895462F4770405D41932C
:10221000B3E00FD0C9F7F6CF462F4F70405D4A3379
:1022200018F0495D31FD4052419302D0A9F7EACF41
:10223000B4E0A6959795879577956795BA95C9F770
:1022400000976105710508959B01AC010A2E069463
:102250005795479537952795BA95C9F7620F731F1C
:10226000841F951FA01D08952F923F924F925F9259
:102270006F927F928F929F92AF92BF92CF92DF9296
:10228000EF92FF920F931F93CF93DF93CDB7DEB7FB
:10229000CA1BDB0B0FB6F894DEBF0FBECDBF09948F
:1022A0002A88398848885F846E847D848C849B84E6
:1022B000AA84B984C884DF80EE80FD800C811B81F4
:1022C000AA81B981CE0FD11D0FB6F894DEBF0FBE23
:0A22D000CDBFED010895F894FFCF93
:1022DA002E496E69740D0048616C6F0D002E494DD0
:1022EA0055206E6F7420666F756E640D002E496EF0
:1022FA0069742073696E2061727261790D002E47CC
:10230A0079726F2063616C6962726174696F6E0DB4
:10231A00002E52656164790D002564090025356433
:10232A000900256475730D00780500000A00000095
:10233A00050000000000000000400000000000004E
:10234A000000000000000000000000000000000083
:02235A00000081
:00000001FF
